:020000040800F2
:1000000098050020D90000083D210008531600087B
:1000100000000000000000000000000000000000E0
:10002000000000000000000000000000A121000806
:1000300000000000000000003F210008CD21000862
:10004000EB000008EB000008EB000008EB000008E4
:10005000EB000008EB000008EB000008EB000008D4
:1000600000000000EB000008EB000008EB000008B7
:10007000EB000008EB00000800000000612200080F
:100080000000000000000000000000000000000070
:10009000EB00000800000000EB0000085516000807
:1000A00000000000EB00000800000000000000005D
:1000B000EB000008EB00000800000000000000005A
:1000C0000448854600F090F800480047C929000818
:1000D000C046C046980500200448804704480047B1
:1000E000FEE7FEE7FEE7FEE7FEE7FEE75D2200082B
:1000F000C100000830B50B46014600202022012433
:1001000009E00D46D5409D4205D31D469540491B4B
:100110002546954040191546521E002DF1DC30BD94
:10012000F0B51FB40646002082B005464024019178
:1001300000901BE0019922460F46304600F042F83D
:10014000049A059B801A994110D3104619462246FD
:1001500000F028F8361A8F4101972246012000212D
:10016000009F00F01FF838184D4100902046641E93
:100170000028DFDC019B00982946324607B0F0BD1D
:10018000D2B201E00270401C491EFBD2704700222F
:10019000F6E710B513460A4604461946FFF7F0FF86
:1001A000204610BD10B5202A04DB0146203A9140BC
:1001B000002010BD914020239C1A0346E3401943C0
:1001C000904010BD10B5202A04DB0846203AD040EC
:1001D000002110BD0B46D340D0402024A21A9140EC
:1001E0000843194610BD0000064C0125064E05E0E7
:1001F000E36807CC2B430C3C98471034B442F7D348
:10020000FFF762FF5C2A00087C2A000810B501F0A5
:10021000E1FF10BD70B50024014620314A79022A61
:1002200003D00421C163012418E0026813680E257D
:10023000AB431360026813685B085B001360436C98
:100240001C221340012215469D40036C5D604A71DB
:1002500000220A71816B002900D08847204670BDBA
:100260002030407970470000FCB5002301249DE058
:1002700027462A469F403A406FD04D68012D05D051
:10028000022D03D0112D01D0122D16D18568032621
:10029000AC465D00AE46AE406546B543AC46CE6862
:1002A0007546AE4065462E43866046680D79BE436E
:1002B000ED06ED0F9D4035434560C6685F000325A0
:1002C000BD40AE46AE4335468E68BE402E43C66046
:1002D0004E68022E01D0122E14D1DE08B600361858
:1002E0000196366A5D07B446EE0E0F25B5400096BE
:1002F0006646AE43B4460D69009EB54066462E4341
:10030000019D2E6206687546AE430D79AD07AD0FAF
:10031000BD40354305604D68ED0046D5264D6E6BFA
:1003200026436E639E08254DB6007519AC46AD6830
:100330009E07360F0F27B740BD4305273F07B8423A
:1003400001D1002710E01E4FB84201D101270BE078
:100350001C4FB84202D1022706E026E01A4FB842ED
:1003600001D1052700E00627B7402F436546AF605F
:10037000164D2E684F689643FF0300D516432E6036
:100380006E684F689643BF0300D516436E60AE6833
:100390004F689643FF0200D51643AE60EE684F6883
:1003A0009643BF0200D51643EE605B1C0A681546F3
:1003B000DA4000D05CE7FCBD0010024000000140C4
:1003C0000004005000080050001C005000040140D0
:1003D000002A01D0816170478162704701488068BE
:1003E000704700001000002070B50246403253787C
:1003F000202B1CD11378012B19D001231370242436
:100400005470046825689D432560046825681E03B0
:10041000B5432560046825680D43256000680168C0
:1004200019430160202050700020107070BD022020
:1004300070BD70B5024640325378202B1BD1137823
:10044000012B18D0012414702423537003681D68F5
:10045000A5431D6005682B680F263602B3430902C9
:100460001943296000680168214301602020507011
:100470000020107070BD022070BD7047704770B5CD
:1004800003689A691968D243D40508D4CC4324067A
:1004900005D4446C01252C4344642C02DC615305D3
:1004A00009D4CB431B0606D4436C0824234343647E
:1004B000E3010468E361920509D4C943090606D43F
:1004C000416C02221143416411020268D161416C06
:1004D0000B22114201D001F053F970BD02689169FD
:1004E0001268436B002B00D018477047704700001C
:1004F00070B5040006D025464035687800260028EF
:1005000002D005E0012070BD2E70204600F05CF99D
:1005100024206870206801684908490001600F21A3
:100520006068090688432168086121688A6801209B
:10053000C00382438A60E1680129A16808D02122B2
:100540009202114322689160E168022902D005E01D
:100550000143F7E701212268C902516021684A6816
:100560000F4B1A434A602168CA688243CA606169B6
:1005700020690843A169090208432168C860216A0B
:10058000E06908432168086020680168012211437E
:1005900001606664202068702663AE70002070BD24
:1005A0000080000270470000FFB505460446403554
:1005B000687881B0202878D12878012875D001206A
:1005C0002870FFF70BFF0746012200901923D10383
:1005D000204601F04AFB00283CD122206870102000
:1005E000A87000266664039860620498608566635C
:1005F000618D2F48FF2903D9FF22228500903BE01F
:10060000618D218500903DE02046029901F006FBB6
:1006100016E001F051FB00281CD12068406A616A95
:100620000870606A401C6062208D401E81B2218586
:10063000608D401E6085608D002801D000290CD09F
:10064000608D0A9900283A462046E2D101F074FBF9
:1006500000281CD0012005B0F0BD009700228021A9
:1006600020460A9B01F001FB0028F3D1608DFF2892
:1006700005D9FF222285009601231B06C4E7608D61
:1006800020850096208D0123C2B25B06BCE721685D
:100690002020C86121684A68064B1A404A60687089
:1006A000AE702E700020D6E7FFE70220D3E70000EF
:1006B0000024008000E800FEFFB5054604464035F2
:1006C000687881B0202878D12878012875D0012059
:1006D0002870FFF783FE0746012200901923D103FB
:1006E000204601F0C2FA00283CD121206870102079
:1006F000A87000266664039860620498608566634B
:10070000618D2F48FF2903D9FF22228500903BE00D
:10071000618D218500903DE02046029901F07EFA2E
:1007200016E001F02FFB00281CD1606A21680078D8
:100730008862606A401C6062608D401E6085208D0A
:10074000401E80B22085618D002901D000280CD088
:10075000608D0A9900283A462046E2D101F0ECFA71
:1007600000281CD0012005B0F0BD00970022802198
:1007700020460A9B01F079FA0028F3D1608DFF280A
:1007800005D9FF222285009601231B06C4E7608D50
:1007900020850096208D0123C2B25B06BCE721684C
:1007A0002020C86121684A68064B1A404A60687078
:1007B000AE702E700020D6E7FFE70220D3E70000DE
:1007C0000020008000E800FE10B586B00446142129
:1007D0006846FFF7DCFC14492068884222D1134C9C
:1007E000E16A01200143E162E16A02900140059162
:1007F00003214902009112210191032104900391E8
:10080000052069460007FFF72FFDA06B0121490570
:100810000843A06300221146172000F061F817205A
:1008200000F052F806B010BD005400400010024025
:100830007047704702488168027889188160704764
:100840001000002010B50848002401684022114320
:100850000160204600F00AF8002801D0012401E0E0
:1008600000F026F8204610BD0020024070B5044676
:100870000D4D7D202978C000FFF73CFC01460B4858
:100880000068FFF737FC00F01BFC002809D1042C9E
:1008900007D200222146401E00F022F800206C60A2
:1008A00070BD012070BD0000100000201C00002061
:1008B0000448416B012211434163816B02041143DF
:1008C0008163704700100240002805DBC106C90E95
:1008D00001208840014908607047000000E100E005
:1008E00010B502F03FF810BDF8B5044600780027B7
:1008F0004E4D800671D54D4E403EB06BC00004D4C5
:10090000B06BA9050843B063012749480168C905D0
:1009100011D40168821511430160FFF75FFD00905B
:1009200005E0FFF75BFD0099401A642837D840487E
:100930000068C005F5D532680321090560680A40E2
:100940000140914208D08103890F032904D1316805
:10095000890301D50120F8BD2A69032109040A4051
:1009600022D0084090421FD0207880061CD52869EC
:100970002A6988430121C9040A432A612A698A43F2
:100980002A612861C0050FD5FFF728FD009008E017
:10099000FFF724FD0099411A2648814201D903201E
:1009A000F8BD28698005F3D561688803800F0328A6
:1009B00005D132680005824301400A43326028694C
:1009C000032261681204114008432861002F04D0FB
:1009D000B16B012000078143B1632078800705D502
:1009E000E8680C218843A1680843E8602078400744
:1009F00006D5E868032189028843E1680843E86076
:100A00002078000706D5E868032109038843216997
:100A10000843E8602078000606D5E86803218904C9
:100A2000884361690843E8600020F8BD4010024037
:100A30000070004088130000F8B50E46050038D05D
:100A40005E480068C007C00FB04214D25B4C2068FB
:100A50004008400030432060FFF7C0FC074605E037
:100A6000FFF7BCFCC11B564881427AD82068C007FA
:100A7000C00FB042F4D12878524C800705D5E06809
:100A8000F0218843A9680843E0602878C00752D065
:100A90006868022806D0032807D0216801280AD0F8
:100AA000890504E02168890301E0216889010029A2
:100AB00003DB0120F8BD4907F9E7E16889088900EF
:100AC0000143E160FFF78AFC0746686802280AD004
:100AD000032814D001281ED029E0FFF77FFCC11B9A
:100AE000374881423DD8E0680007800F0228F4D1E2
:100AF00021E0FFF773FCC11B3148814231D8E06827
:100B00000007800F0328F4D115E0FFF767FCC11B35
:100B10002B48814225D8E0680007800F0128F4D1D6
:100B200009E0FFF75BFCC11B2548814219D8E0684A
:100B30000007800FF5D121480168C907C90FB142EC
:100B400017D901684908490031430160FFF746FCA5
:100B5000074608E005E0FFF741FCC11B1848814249
:100B600001D90320F8BD15480068C007C00FB04286
:100B7000F1D12878400706D5E068072109028843AB
:100B8000E9680843E0602878000707D5E068072196
:100B9000C90288432969C9000843E06000F03AF8B7
:100BA000E168094A0906090F515CC8400749086015
:100BB00007480068FFF75AFEF8BD00000020024019
:100BC0008813000000100240382A00081C00002092
:100BD00014000020044805490068C968044A490512
:100BE000490F515CC84070471C00002000100240B3
:100BF000512A0008044805490068C968044A890464
:100C0000490F515CC84070471C0000200010024092
:100C1000512A000870B51A4AD3681A490C201840A6
:100C20008D0004280CD04E00082810D00C2810D0BD
:100C300050680004410F0120C003491C884070BD6A
:100C40001068C00601D5084670BD284670BD304604
:100C500070BD98020C4C000F205C1B029C0FD368E7
:100C6000641CDB0301D5314603E01268D20600D4D0
:100C7000294601F052FE22460023FFF751FA70BDCB
:100C80000010024000093D00482A0008FEB505009A
:100C90007ED0F74CE7680C20E6680740012000048E
:100CA00006402878C00747D0082F05D00C2F0AD15E
:100CB00001200004864206D1206880033CD5686884
:100CC0000028E5D038E0012069680004814203D1A2
:100CD00021680143216011E0052301221B049204D5
:100CE0009942216802D111432160F1E781432160DB
:100CF00021680140009120689043206068680028C6
:100D00000DD0FFF76BFB009005E0FFF767FB009944
:100D1000401A64287ED820688003F6D50CE0FFF7DF
:100D20005DFB009005E0FFF759FB0099401A64282D
:100D3000F0D820688003F6D4287880075DD5E8686D
:100D4000810604D5226820210A43226088430923B2
:100D5000042F0DD00C2F01D1002E09D000283CD03B
:100D60002168994301432160FFF738FB064628E0DC
:100D70002168490701D500288AD061681F22120224
:100D800091432A691202114361602168994300E08E
:100D900091E101432160FFF73DFFE16809060A0F79
:100DA000B449895CC840B4490860B4480068FFF79A
:100DB0005DFD002874D120E0FFF710FB801B0228A6
:100DC000A8D820684007F7D560681F21090288432A
:100DD00029690902084360600FE02068400840006C
:100DE0002060FFF7FBFA064604E0FFF7F7FA801BE6
:100DF00002288FD820684007F7D42878C00661D52C
:100E0000002F0DD0A86900284BD02068FF210131A8
:100E1000084300E0C6E02060FFF7E0FA06462DE058
:100E20002068800502D5A8690028A5D06068072140
:100E300049038843296A084360606068297F00028B
:100E4000000A090608436060286A410B0120C003BC
:100E5000491C8840E16809060A0F8649895CC84038
:100E60008549086085480068FFF700FD002817D114
:100E700028E0FFF7B3FA801B0228A1D8206880057C
:100E8000F7D56068072149038843296A08436060F1
:100E90006068297F0002000A09060843606011E0CB
:100EA000E1E02168FF20013081432160FFF796FADD
:100EB000064604E0FFF792FA801B022872D82068E9
:100EC0008005F7D428786E4E000724D5686900287D
:100ED000306910D0012108433061FFF77FFA00909C
:100EE00005E0FFF77BFA0099401A02285AD83069CA
:100EF0008007F6D50FE0400840003061FFF76EFA3A
:100F0000009005E0FFF76AFA0099401A022849D8D4
:100F100030698007F6D42878400765D50020029014
:100F2000A06BC00006D4A06B012109070843A06391
:100F30000120029053480168C90511D40168821547
:100F400011430160FFF74AFA009005E0FFF746FA07
:100F50000099401A642825D84A480068C005F5D58C
:100F6000FF20AA680130824203D131690143316117
:100F700011E001218902002A07D005231B029A42B1
:100F800003D132690A433261EFE732698243326149
:100F9000306988433061A86800280FD0FFF71EFA37
:100FA000009007E05EE0FFF719FA0099411A364811
:100FB000814257D830698005F5D50DE0FFF70EFA6C
:100FC000009006E0FFF70AFA0099411A2E48814284
:100FD00048D830698005F5D40298002804D0A06B69
:100FE000012109078843A063686A002865D00C2F97
:100FF0004CD0012636060228206805D0B043206078
:10100000FFF7ECF905462FE0B0432060FFF7E6F963
:10101000074604E0FFF7E2F9C01B022822D8206847
:101020008001F7D4E96AA86AE2680843296BFD23C6
:101030001B049A4311430843E0602068304320605A
:10104000FFF7CCF9054604E0FFF7C8F9401B02287A
:1010500008D820688001F7D52FE0FFF7BFF9401BC3
:10106000022801D90320FEBD20688001F5D424E0C8
:1010700000100240382A00081C0000201400002044
:101080004010024000700040881300000128EAD0A0
:10109000E06801210904AA6A014091420BD10F21A5
:1010A0008904EA6A0140914205D10321890508407B
:1010B000296B884201D00120FEBD0020FEBD00004A
:1010C000094910B5401E884201D9012010BD074CC6
:1010D00060610321081F01F045FC0020A06107208A
:1010E0002061002010BD0000FFFFFF0000E000E0D5
:1010F000F0B502462032137E012B1ED00125157655
:101100000223537606687468B3687027BC430F687F
:10111000274377600068AC07A04205D0084CA04286
:1011200002D0084CA04204D180244968A34319434B
:101130008160557600201076F0BD0220F0BD0000E1
:10114000000801400014014070B5050005D02C4690
:101150002034607E002802D006E0012070BD00200F
:101160002076284600F010F802206076291D2868B5
:1011700001F07EF80120A077A076E07620776077F6
:101180006076002070BD000010B50068012189075D
:1011900088420CD10648816B0122114381630022F1
:1011A00011460F20FFF79CFB0F20FFF78DFB10BDB2
:1011B00000100240014620314A7E012A01D0012060
:1011C000704702224A760268D36801210B43D3603C
:1011D00000688A07904205D0074A904202D0074A29
:1011E000904204D182685207520F062A02D0026848
:1011F0000A430260002070470008014000140140CB
:10120000F8B5054604462035287E012817D001266A
:101210002E7602206876226890687727FF23B843ED
:101220001B02984390600A68502A31D00EDC202AB5
:101230004BD006DC002A48D0102A3AD145E00220E3
:10124000F8BD302A41D0402A33D136E0602A27D079
:10125000702A12D001200003121A2AD0824228D10B
:10126000CB684A688968206801F02EF82068816898
:1012700001229203114381601BE0CB684A688968B0
:10128000206801F021F8216888683843886010E000
:10129000CA684968206801F06DF85021206806E0AE
:1012A000CA684968206801F076F86021206801F07A
:1012B00016F86E7600202876F8BDCA68496820685E
:1012C00001F058F840212068F1E711462068EEE768
:1012D000704770B50446006801690025C943890755
:1012E000002915DBC168C943890711D4E91E0161D2
:1012F00001202076206880698007204602D0FFF711
:10130000E7FF04E000F078F8204600F076F8257654
:1013100020680169C943490717D4C168C94349070F
:1013200013D40421C943016102202076206880691A
:101330008005800F204602D0FFF7CAFF04E000F0CE
:101340005BF8204600F059F8257620680169C9430A
:10135000090716D4C168C943090712D40821C94333
:101360000161042020762068C0698007204602D0F1
:10137000FFF7AEFF04E000F03FF8204600F03DF834
:10138000257620680169C943C90617D4C168C943D5
:10139000C90613D41021C9430161082020762068B2
:1013A000C0698005800F204602D0FFF791FF04E05E
:1013B00000F022F8204600F020F825762068016928
:1013C000C943C90708D1C168C943C90704D1891EE7
:1013D0000161204600F012F820680169C9434906FE
:1013E00009D4C168C943490605D44021C9430161F4
:1013F000204600F02DF870BD7047704710B500F022
:10140000E9FC10BD70B5044605462034207E012855
:101410000ED00126267602206076284600F067FF6F
:1014200001460020002905D066762076012070BD97
:10143000022070BD2968CA6840239A43CA6029689F
:10144000CA681B029A43CA6066762076002070BD87
:101450007047704710B5040003D0A06F002802D079
:1014600007E0012010BD002174200155204600F046
:1014700027F82420A0672068016849084900016016
:10148000204601F0B3F80128ECD0606A002802D0B1
:10149000204600F093FF206841680922D202914360
:1014A0004160206881682A22914381602068016838
:1014B000012211430160204600F0E6FF10BD00004C
:1014C00010B586B0044614216846FEF760FE0F4949
:1014D0002068884218D10E48816B012252041143C2
:1014E0008163C26A02210A43C262C06A0191084054
:1014F0000590C020009000210320029104910390E8
:1015000069460448FEF7B0FE06B010BD0044004036
:10151000001002400004005030B5C36F202B27D1CB
:1015200000290BD0002A09D0012483682403A34298
:1015300006D10369002B03D1CB0701D0012030BDB8
:10154000034660331C7D012C12D001241C7500233E
:101550000366084C0368A34207D05C68240204D5E4
:101560001C680125AD062C431C6001F02DF930BD2F
:10157000022030BD0048004010B500F037FC10BD1F
:10158000FFB50446806F83B017460D4620285ED114
:10159000002D0AD0002F08D0A168C001814207D1D8
:1015A0002069002804D1E80702D0012007B0F0BD6F
:1015B000204660300090007D012848D0009801212D
:1015C00001750020802108512120A067FEF706FF49
:1015D000264640360190378277820120A1680003B9
:1015E000814202D12069002805D02F4600250099AC
:1015F0000020087511E00027F9E70022802120462D
:1016000001F038F9002815D1002F15D0216838785D
:1016100088627F1C708A401E7082708A019B00283D
:1016200006980090E9D100224021204601F022F9DD
:10163000002808D00320B9E728882168C005C00D1C
:101640008862AD1CE6E72020A0670020AEE70220FC
:10165000ACE7FEE710B50648006880694005400F1A
:10166000034802D0FEF70BFF10BDFEF737FF10BD99
:101670002000002010B5806A0021826B002A00D073
:101680009163C26B002A00D0916300F0DBFA10BDB9
:10169000F0B504460022CE0740342823B025002EA2
:1016A00005D0667842221F46B74300D0F2228E074B
:1016B00005D5442664783243A34300D02A43CB0B9C
:1016C00001D0B8231A43102908D0202907D0402977
:1016D00005D00068016891430160F0BD90210A4384
:1016E000F7E701688A69D243920701D400228A622F
:1016F00000688169C943C90703D081690122114388
:1017000081617047F8B50546044640356878282160
:101710008143206804D00821C16100202870F8BDF1
:101720008169C903CF0F8169FE230E0C81681E40B9
:101730008A05C168920D19408C46E168022916D1CC
:101740000621D3090E400B409E420FD1A16C491CCB
:10175000A164A16C0229E2D10021A1640823C36124
:10176000297039462046FEF789FEF8BD66460121FC
:10177000C9032046FFF78CFF002028703246F0E7AF
:10178000F8B505460446403568780026AE70334A01
:10179000E2626685626C0A43626428281ED02928AA
:1017A0001CD02A281AD02E492046FFF771FF6878EE
:1017B000602801D0202068706663206BA16B294FE0
:1017C000002903D0112812D0212810D0E16B002964
:1017D00025D0122827D0222825D020E0032120461A
:1017E000FFF756FF282068701F486063E5E7206810
:1017F0000168490404D50168012292039143016004
:10180000A06BFEF72DFD012809D0A06B87632E7019
:10181000A06BFEF7FFFC002804D0A06B1AE0204666
:1018200000F010FAF8BD20680168090404D50168C9
:101830000122D20391430160E06BFEF711FD012804
:10184000EDD0E06B87632E70E06BFEF7E3FC0028C1
:10185000E8D0E06B816B8847F8BD00000000FFFF17
:101860000380000075160008ED1A000870B50446E4
:101870001648E062002525632022204640300646B7
:1018800042708570C8436563400712D42068406A7F
:10189000616A0870606A401C6062208D002808D070
:1018A000401E2085608D401E6085606C04210843C9
:1018B000606407492046FFF7EBFE21681020C861ED
:1018C00035702046FEF76EFE70BD00000000FFFF81
:1018D00003800000F8B502680446166805464035E6
:1018E00068780F462021D161212806D0292804D00C
:1018F000222808D02A2806D00CE042492046FFF7CB
:10190000C7FE212005E03F492046491CFFF7C0FEE5
:1019100022202063206841680122D20311434160E4
:1019200020684168384A114041602046FFF7D9FEDF
:10193000F043410407D420680168012292039143D7
:101940000160A06B08E000040BD42068026801214C
:10195000C9038A430260E06B002802D00068406837
:101960006085F8434007042100280FDB20688F437F
:10197000406A626A1070606A401C6062208D0028B4
:1019800004D0401E2085608D401E6085608D00283B
:1019900002D0606C084360640026AE706663606CC1
:1019A00000280BD0616C2046FFF7EAFE68782828F3
:1019B00003D139462046FFF759FFF8BDE06A134FBF
:1019C000B8420BD0204600F023F8E7622020687070
:1019D00026632E702046FEF7E5FDF8BD68782228C4
:1019E00007D02020687026632E702046FEF721FF66
:1019F000F8BD2020687026632E702046FEF718FF81
:101A0000F8BD00000180000000E800FE0000FFFFBC
:101A100070B505460068016800262C464034A67063
:101A2000C9434A0403D401680122920304E0090473
:101A300004D401680122D203914301606178282017
:101A400029290ED061782A290AD1607022202863C2
:101A500002212846FFF71CFE26702846FEF7E8FE06
:101A600070BD60702120286301212846FFF710FE19
:101A700026702846FEF7DDFE70BD0000F7B504466F
:101A800000680E468069C043C0062BD42027254637
:101A9000403520688069C043800612D5701CF8D09C
:101AA000FEF79CFC0299401AB04201D8002EF0D1FA
:101AB000606C384360646F700020A870287001204B
:101AC000FEBD21681020C8612068C7612046FFF76D
:101AD00008FE20684168044A11404160606C04219E
:101AE0000843E7E70020FEBD00E800FEFEB5C56A3A
:101AF00004460646403601913078012828D001205E
:101B000030700198D743C04300908006002805DB61
:101B1000B80603D420460199FFF7DCFE00983D4942
:101B20003D4AC00630D4F8062ED4638D1020002B19
:101B300010D02168C861606C042108436064002DE6
:101B400001D0954262D1616C2046FFF719FE5DE03D
:101B50000220FEBD7278282A08D101225206954241
:101B600004D120460199FFF781FE4FE07278292ABF
:101B700007D18D4205D02168C8612046FFF7B1FD2D
:101B800041E02168C86141E00098400717D4780718
:101B900015D4608D00280CD02068406A626A1070ED
:101BA000606A401C6062208D401E2085608D401E52
:101BB0006085608D002829D18D4224D126E00098CF
:101BC000000706D4380704D420460199FFF79AFD90
:101BD0001CE00098800719D4B80717D4608D00283E
:101BE0000DD0606A216800788862606A401C60627B
:101BF000608D401E6085208D401E208506E0954248
:101C000001D0002D02D12046FFF702FF00203070E6
:101C1000FEBD00000000FFFF00000001F0B50668F7
:101C2000059C7568064F600D384385438805800D17
:101C3000110408431843204305437560F0BD0000BC
:101C4000FF63FF0310B5014640314B780022602B43
:101C500004D002630A70FEF749FC10BD20234B70CC
:101C600002630A70FEF709FC10BDF8B51D46174661
:101C70000E46044609E0681C07D0FEF7AFFB069944
:101C8000401AA8420BD8002D09D02068816930463F
:101C900088430FD00020B842EDD00020F8BD616C21
:101CA000202001436164403460700020A0702070E7
:101CB0000120F8BD0120EEE7F7B5002720260546F4
:101CC0000446403528E02046029A0199FFF7D6FEE7
:101CD000002801D00120FEBD20688069C043800635
:101CE00011D420688169C943490702D4218D002994
:101CF00017D1C661206841680E4A1140416067648F
:101D00006E70AF7013E0FEF769FB0299411A0198FB
:101D1000814208D8002806D020688069C043400767
:101D2000D1D40020FEBD606C304360646E702F70B3
:101D3000D0E7000000E800FE70B516460D460446E8
:101D40000FE0324629462046FFF798FE002801D0D2
:101D5000012070BDFEF742FB801BA84208D8002D71
:101D600006D020688069C0438006EAD4002070BD98
:101D7000616C202001436164403460700020A070D9
:101D80002070E5E770B516460D46044611E0324670
:101D900029462046FFF772FE002801D0012070BDC1
:101DA000681C06D0FEF71AFB801BA84208D8002D3D
:101DB00006D020688069C0438007E8D4002070BD49
:101DC000616C202001436164403460700020A07089
:101DD0002070E3E704484178012901D0012100E0A7
:101DE00000214170704700000000002010B5084835
:101DF00000F07CFB06480078312806D000F0B1F8EE
:101E00006421034800F02CFD10BD00F0A1F8F7E7B5
:101E10000200002010B50021022000F0ABF80021E4
:101E2000042000F0A7F80021032000F0A3F810BD63
:101E300010B50C46C007010EE007400E0143D00765
:101E4000800E0143D807C00E0143012000F092F834
:101E500010BD000010B5044A9160506000F081F898
:101E6000FFF7D8FF10BD0000040000203EB5694612
:101E700008710024E443094D0094012301AAAE2116
:101E80006868FEF719FC0094012302AAAE21686875
:101E9000FEF78AFB6946087A3EBD00000400002078
:101EA00010B5054A9070000151700843C1B2092075
:101EB00000F060F810BD00000400002010B50446DA
:101EC0000720FFF7D3FFA1078008890F8000014397
:101ED000072000F04FF810BD70B5154D044628706E
:101EE0000620FFF7C3FFC1086007C900400F014388
:101EF000032C10D0F7200140062000F03BF8287892
:101F000003280BD002280DD000231A4619460020C2
:101F1000FFF78EFF70BD08200143EDE700231A464E
:101F20000121F4E700231A4619460120F0E70000DA
:101F30000400002010B504460720FFF797FF610753
:101F4000E322C90E10400143072000F013F810BD32
:101F500010B50F210846FFF7A3FF0320FFF7BCFFD2
:101F600010BD10B500210846FFF79AFF0020FFF7CB
:101F7000B3FF10BD1CB56A46107151710020C043FB
:101F800000900448022301AAAE214068FEF794FBAA
:101F90001CBD000004000020F0B587B01421684685
:101FA000FEF7F5F81D48C26A04210A43C262C26AFC
:101FB0000A400592C16A01252943C162C16A2940CC
:101FC0000591C26A02210A43C262C06A8F030840B7
:101FD00005900520002239460007FEF7F9F9104860
:101FE000009003260024052069460196029400070C
:101FF000FEF73AF93B2000906946019602940948A1
:10200000FEF732F905200294694600070097019512
:102010000394FEF729F907B0F0BD0000001002405C
:10202000FF1900000004005010B514481249016067
:10203000E121C9004160002181600161416181614C
:102040000122C161C2600162FEF752FA002801D08C
:1020500072B6FEE700210948FEF7C6F9002801D054
:1020600072B6FEE700210548FEF7E3F9002801D02B
:1020700072B6FEE710BD00000054004020000020B2
:1020800010B58CB00024059406940794142168467A
:102090000894FEF77CF801211848099489070A94EE
:1020A00012C0046084601649C46041600838FFF7BC
:1020B0004BF8002801D072B6FEE70120000305901E
:1020C00005A90E48FFF79CF8002801D072B6FEE77C
:1020D0000094694609480194FFF794F9002801D05B
:1020E00072B6FEE7099409A904480A94FFF700F8BC
:1020F000002801D072B6FEE70CB010BD6C000020C5
:10210000FFFF000010B50C480A4901604B21C901CE
:10211000416000218160C16001618161C1610C2267
:10212000016242614162FFF795F9002801D072B661
:10213000FEE710BD00440040AC000020FEE7704701
:1021400010B5FFF729FF10BD10B5FEF77BFB10BDE2
:1021500010B5FFF769FF10BD094910B508468C3866
:10216000FFF778FE0120FFF7E5FE0320FFF7A6FE4C
:1021700000210846FFF794FE0020FFF7ADFE10BDDA
:10218000AC00002010B5FFF77BFF0248FFF712F804
:1021900010BD00006C00002010B5FFF7B3FF10BDAC
:1021A000704710B57D240346E40004E05B1E9BB23B
:1021B000204600F003F8002BF8D110BD00220121C9
:1021C00089074A624A6A8242FCD3704710B5FEF71B
:1021D00031FB10BD10B598B034216846FDF7D7FF2C
:1021E00014210DA8FDF7D3FF182112A8FDF7CFFF8A
:1021F000194801680322D2029143C2148918016070
:102200001020009001200690052000244003089033
:10221000079409946846FEF739FD002801D072B68C
:10222000FEE70F200D900E940F941094002111944E
:102230000DA8FEF701FC002801D072B6FEE70A20C7
:1022400012901494169412A8FEF74EFB002801D0A9
:1022500072B6FEE718B010BD007000407047000075
:1022600010B50248FFF735F810BD00006C000020E3
:1022700070B5026801239B07114C124D984203D0A0
:10228000A04201D0A84203D17026B2434E68324327
:10229000984203D0A04201D0A84204D103231B02DC
:1022A0009A43CB681A4380239A430B691A4302600E
:1022B0008A68C262096881620121416170BD0000C3
:1022C000000801400014014030B58468FF252D024C
:1022D0001B021343AC430B432343836030BD82682E
:1022E00070239A430A4307210A438260704770B5FE
:1022F0000468A26870239A434B681343DB080A689A
:10230000DB001A43A2604A6813071B0F30D1121179
:10231000130000F01AFB082D2D2D2D0C2228052D61
:102320000B698A68C9680068FFF7CEFF20E00A6879
:10233000052A10D00268136A146A640864001462E3
:102340000468A2690969F025AA4309011143A16142
:10235000006803620CE0012070BD0A6989680068AA
:1023600000F008F804E00A698968006800F013F8D2
:10237000002070BD30B5036A046A6408640004621A
:102380008469F025AC43120122430A24A3430B4382
:102390008261036230BD30B5036A1024A343036237
:1023A0008469036A0F252D031203AC432243A02442
:1023B000A343090119438261016230BD10B5818CCC
:1023C000C90707D001684A6801235B049A43836AFE
:1023D0001A434A60818C890707D501684A6801233E
:1023E0001B049A43C36A1A434A60818C490707D584
:1023F00001684A6801239B049A43036B1A434A60AD
:10240000818C090707D501684A680123DB039A43D9
:10241000436B1A434A60818CC90607D502689168EC
:1024200001231B039943836B19439160818C8906B7
:1024300007D501688A6801235B039A43C36B1A437B
:102440008A60818C490612D503685A680121090502
:10245000046C8A4322435A60026C8A4207D10268A4
:10246000516803235B059943436C19435160818C88
:10247000090607D501684A680123DB04806C9A438A
:1024800002434A6010BD0000F8B5044600268030C3
:102490000660FDF7A3FF054620680068124F00079D
:1024A00009D501212B46002249052046009700F05E
:1024B000E1F900280DD12068006840070BD5012103
:1024C0002B46002289052046009700F0D3F900280A
:1024D00001D00320F8BD2020A067E06726666034A5
:1024E00026750020F8BD0000FFFFFF0110B5014672
:1024F00004220248FFF710F810BD0000AC000020D5
:1025000070B504464030828BE36F2168222B04D0E3
:10251000886908221043886170BD496A636D114063
:102520001980616D891C6165418B491E4183418B16
:102530000029F1D121680A68FF2321339A430A60F8
:1025400021688A68520852008A602021E1670025CC
:102550006566216E012904D02046FFF70DF8256637
:1025600070BD21680A6810239A430A60018B2046D7
:10257000FEF76FFFF3E770B504464030828BE36FE0
:102580002168222B04D0886908221043886170BD1D
:10259000496A1140626D1170616D491C6165418B22
:1025A000491E4183418B0029F1D121680A68FF232C
:1025B00021339A430A6021688A68520852008A606F
:1025C0002021E16700256566216E012904D020469F
:1025D000FEF7D2FF256670BD21680A6810239A4372
:1025E0000A60018B2046FEF734FFF3E7F8B5044696
:1025F000016880682369E6691843636900253343ED
:1026000018436A4A0B686A4E334003430B602068E4
:10261000416803231B039943E36819434160216820
:10262000A069914201D0236A18438B680B263602B9
:10263000B34303438B605F4923685F488B420AD1F1
:10264000C0680C21084027D0042829D0082825D0AC
:102650000C2811D10EE093420ED1C16803208002F4
:10266000014019D001208002091A19D0091A15D089
:10267000814201D1082700E010274F494F484039D7
:102680008600934232D1002F0CD0022F0DD0042FA0
:1026900010D0082F7FD126E00027EEE70227ECE7D5
:1026A0000427EAE7FEF796FA06E00968C90605D4AA
:1026B000304603E0FEF7AEFA002872D0626851009F
:1026C0005118814267D81103814264D3010E06027A
:1026D0005008002330185941FDF722FD032109025B
:1026E000411A374A55E00120C003E7E70122E369B8
:1026F000D20393422BD13B0000F027F90906090CC5
:102700004D114D4D4D274D00FEF764FA09E0FEF7DF
:1027100071FA06E00968C90605D4304603E0FEF701
:1027200079FA00283DD0616840004A088018FDF71A
:10273000E1FC80B20146234A103991422BD8511C4A
:1027400001400007400F084329E01046EBE73B003B
:1027500000F0FBF80906090C211221212123210098
:10276000FEF738FA0AE0FEF745FA07E00968C906FD
:1027700006D4304604E00EE0FEF74CFA002810D0F4
:1027800061684A081018FDF7B5FC80B201460D4A91
:102790001039914203D9012503E01046F0E7216882
:1027A000C86000206066A0662846F8BD004800406A
:1027B000F369FFEF004400404010024000093D0073
:1027C000FFFC0F00EFFF000070B54165014640318E
:1027D0000A834A8300224266012483682403FF257A
:1027E000A34204D10369002B13D11A4B0AE07F26C0
:1027F000002B09D001252D07AB420CD10369002B1A
:1028000005D03F238B8307E00369002B01D08E8323
:1028100002E08D8300E08A8380210A502221C16773
:1028200001688B6801252B438B608168A14202D12E
:10283000016900290BD00849416674210A540068D7
:102840000168FF22213211430160002070BD03495D
:10285000F2E70000FF0100007725000801250008CD
:102860000B4610B5014604220148FEF789FE10BD53
:10287000AC000020FFB581B005460F460446603528
:102880000A9E39E0701C37D0FDF7A8FD0499401A64
:10289000B04222D8002E20D02068016849072BD5ED
:1028A000C069C043000527D401202168C002086226
:1028B00020680168FF22A13291430160206881688D
:1028C0004908490081602020A067E06780342060CB
:1028D00000202875032005B0F0BD20680168FF22A4
:1028E000A1329143016020688168490849008160F4
:1028F0002020A067E067EBE72068C169384688437D
:1029000005D0002103988142BCD00020E3E70121DB
:10291000F8E710B5FDF75CFD10BDF8B5040C8BB2FF
:10292000264682B25E430D0C1046370C58433604DF
:1029300080190021794116466E43370C3604801900
:10294000794126466E438919F8BD30B47446641E39
:102950002578641CAB4200D21D46635D5B00E31822
:1029600030BC18478307FF22DB0E9A408907090E07
:102970009940002808DB830809489B001B18186849
:1029800090430843186070470007000F0838830819
:1029900004489B001B18D86990430843D8617047CE
:1029A00000E400E000ED00E002E008C8121F08C1EA
:1029B000002AFAD170477047002001E001C1121FC0
:1029C000002AFBD170470000FFF7BEFBFDF71EFC9D
:1029D000FFF7B6FBFFF7BCFBFFF7D4FBFFF7DCFB11
:1029E000FFF7BAFB1248FFF781FD114D00260127C2
:1029F000AC1E2878302802D0312802D002E02670A0
:102A000000E027702078002802D001280CD107E0D0
:102A1000012105206278C9030007FFF77AFF03E070
:102A200064210448FFF71CFF6420FFF7BAFBE0E7CE
:102A30000200002030010020000000000000000023
:102A40000102030406070809030406080C101820F5
:102A50003000000000010203040000007C2A00088E
:102A60000000002020000000A82900089C2A00087F
:102A70002000002078050000B829000800000000B0
:102A80000000000000000000000000000100000045
:0C2A900004000000000000000000200016
:04000005080000C12E
:00000001FF
